S0230000535F45534C315F30335F4C45445F73657175656E63655F56322E302E7372656347
S11300000C9432000C9451000C944F000C944F004B
S11300100C944F000C944F000C944F000C944F0020
S11300200C944F000C944F000C944F000C944F0010
S11300300C944F000C944F000C944F000C944F0000
S11300400C944F000C944F000C944F000C944F00F0
S11300500C944F008F00A000B100C200D300E30055
S1130060F300030111241FBECFE5D8E0DEBFCDBFEE
S113007010E0A0E6B0E0E4E8F7E002C005900D92DD
S1130080AE36B107D9F720E0AEE6B0E001C01D926C
S1130090A237B207E1F70E941B030C94C0030C942F
S11300A000001F920F920FB60F9211248F9380912C
S11300B06E00883020F48F5F80936E0003C081E06F
S11300C080936E008F910F900FBE0F901F90189524
S11300D08FE690E00E94A1018BE690E00E94A101CE
S11300E088E690E00E94A10185E690E00E94A101CB
S11300F082E690E00E94D00180E690E00E94DE0259
S11301000895E0916E008E2F90E0FC013197E83065
S1130110F10508F087C0E65DFF4F0C94BA0381E057
S1130120809371008FE690E00E94130104C082E680
S113013090E00E94EB01809164008130C1F3089546
S113014081E080936D008BE690E00E94130104C06F
S113015082E690E00E94EB01809164008130C1F35B
S1130160089581E080936A0088E690E00E9413017C
S113017004C082E690E00E94EB018091640081302B
S1130180C1F3089581E08093670085E690E00E94C2
S1130190130104C082E690E00E94EB0180916400A8
S11301A08130C1F30895109271008FE690E00E94AF
S11301B0580104C082E690E00E94EB018091640043
S11301C08130C1F3089510926D008BE690E00E9497
S11301D0580104C082E690E00E94EB018091640023
S11301E08130C1F3089510926A0088E690E00E947D
S11301F0580104C082E690E00E94EB018091640003
S11302008130C1F308951092670085E690E00E9462
S1130210580104C082E690E00E94EB0180916400E2
S11302208130C1F30895FC01908182818130E1F530
S1130230913099F028F09230E9F0933041F136C0D2
S113024081E090E0018002C0880F991F0A94E2F7D0
S11302509BB3892B8BBB80E0089581E090E0018003
S113026002C0880F991F0A94E2F798B3892B88BBC0
S113027080E0089581E090E0018002C0880F991F1A
S11302800A94E2F795B3892B85BB80E0089581E059
S113029090E0018002C0880F991F0A94E2F792B39C
S11302A0892B82BB80E0089582E0089581E008955F
S11302B0FC0190818281811140C09130A1F028F02D
S11302C09230F9F0933059F13AC081E090E0018026
S11302D002C0880F991F0A94E2F780959BB3892383
S11302E08BBB80E0089581E090E0018002C0880F1C
S11302F0991F0A94E2F7809598B3892388BB80E01C
S1130300089581E090E0018002C0880F991F0A944B
S1130310E2F7809595B3892385BB80E0089581E059
S113032090E0018002C0880F991F0A94E2F780953B
S113033092B3892382BB80E0089582E0089581E02E
S113034008950F931F93CF93DF9300D000D0CDB7C0
S1130350DEB78C0119821A821B821C82FC01808107
S1130360898381818A8381E08B83CE0101960E94F7
S11303702203F8018281813021F4C8010E94130113
S113038005C0811103C0C8010E94580180E00F908C
S11303900F900F900F90DF91CF911F910F910895BF
S11303A0CF93DF9300D000D0CDB7DEB719821A8285
S11303B01B821C82FC012081298381818A83CE01D6
S11303C001960E94220380E00F900F900F900F90EF
S11303D0DF91CF910895FC0190819130F1F030F0DC
S11303E09230B1F1933009F44EC068C089B390E003
S11303F0018002C0959587950A94E2F79C012170CB
S1130400332780FF04C081E0828380E00895232B9A
S113041009F056C0128280E0089586B3218190E0ED
S1130420022E02C0959587950A94E2F780FF04C0D6
S113043081E0828380E0089589B390E002C09595BD
S113044087952A95E2F780FD3DC0128280E00895E9
S113045083B3218190E0022E02C0959587950A947A
S1130460E2F780FF04C081E0828380E0089589B3CD
S113047090E002C0959587952A95E2F780FD24C007
S1130480128280E0089580B3218190E0022E02C0A0
S1130490959587950A94E2F780FF04C081E08283F2
S11304A080E0089589B390E002C0959587952A95D8
S11304B0E2F780FD0BC0128280E0089581E0089588
S11304C080E0089580E0089580E0089580E0089534
S11304D00FB607FE05C08BB780648BBF80E008951C
S11304E081E008950FB607FE05C08BB780688BBF07
S11304F080E0089581E008950FB607FE05C08BB72C
S113050080628BBF80E0089581E00895813011F10D
S113051018F08230E9F14AC0613059F028F06230B5
S113052071F0633091F044C085B78C7F85BF80E063
S1130530089585B781608D7F85BF80E0089585B774
S11305408E7F826085BF80E0089585B7836085BF14
S113055080E00895613059F028F0623071F0633022
S113056091F028C085B7837F85BF80E0089585B763
S11305708460877F85BF80E0089585B78B7F88601E
S113058085BF80E0089585B78C6085BF80E00895BD
S1130590623029F484B78F7B84BF80E00895633090
S11305A059F484B7806484BF80E0089583E008959B
S11305B080E0089580E0089582E00895FC01808140
S11305C061817894813059F018F0823079F015C047
S11305D00E9486020E946802813089F408950E9474
S11305E086020E947202813061F408950E9486029C
S11305F00E947C02813039F4089580E0089580E0FF
S1130600089580E0089580E00895CF93DF9300D0AB
S11306101F92CDB7DEB78FEF8B83198283E08A8375
S1130620CE0101960E94DE028B830F900F900F90F3
S1130630DF91CF9108950E9405030E9468000E94F3
S11306408100FDCFFC019081913049F138F0923066
S113065009F446C0933009F463C082C082818111D9
S11306600EC081E090E0018002C0880F991F0A94B7
S1130670E2F780959AB389238ABB80E0089581309C
S113068009F070C081E090E0018002C0880F991FDA
S11306900A94E2F79AB3892B8ABB80E00895828199
S11306A081110EC081E090E0018002C0880F991F83
S11306B00A94E2F7809597B3892387BB80E0089575
S11306C0813009F051C081E090E0018002C0880FC0
S11306D0991F0A94E2F797B3892B87BB80E00895AA
S11306E0828181110EC081E090E0018002C0880FF8
S11306F0991F0A94E2F7809594B3892384BB80E020
S11307000895813099F581E090E0018002C0880F5E
S1130710991F0A94E2F794B3892B84BB80E008956F
S1130720828181110EC081E090E0018002C0880FB7
S1130730991F0A94E2F7809591B3892381BB80E0E5
S113074008958130A9F481E090E0018002C0880F0F
S1130750991F0A94E2F791B3892B81BB80E0089535
S113076081E0089580E0089580E0089580E0089590
S113077080E00895EE0FFF1F0590F491E02D099499
S1070780F894FFCF17
S1110784000303020000030000020000010055
S9030000FC
