:100000000C9432000C9451000C9468000C944F0036
:100010000C944F000C944F000C944F000C944F0024
:100020000C944F000C944F000C944F000C94C50599
:100030000C944F000C944F000C944F000C944F0004
:100040000C944F000C944F000C944F000C944F00F4
:100050000C944F00F000FD0016013B016C0197016C
:10006000BC01DB0111241FBECFE5D8E0DEBFCDBF50
:1000700010E0A0E6B0E0E6E4FEE002C005900D92DC
:10008000AA37B107D9F720E0AAE7B0E001C01D9276
:10009000A538B207E1F70E9462040C9421070C9482
:1000A00000001F920F920FB60F9211248F93809130
:1000B0007F00883020F48F5F80937F0003C081E051
:1000C00080937F008F910F900FBE0F901F90189517
:1000D0001F920F920FB60F9211248F9380916000A0
:1000E000853020F48F5F8093600003C081E08093AF
:1000F00060008F910F900FBE0F901F90189580E8B1
:1001000090E00E94FE0287E790E00E94FE0284E7F2
:1001100090E00E94FE0281E790E00E94FE028EE6DF
:1001200090E00E942D038BE690E00E942D0389E66B
:1001300090E00E943B0487E690E00E943B0481E649
:1001400090E00E94FF04089520917A00211109C0D7
:10015000BC0180E090E00E94800581E080937A00FD
:10016000089580E090E00E94800510927A00089542
:10017000EF92FF920F931F93CF93DF93EC018B01CC
:100180007A0181E08A83CE010E947002B701C80122
:100190000E94A4001A82CE010E94B502B701C801D4
:1001A0000E94A40004C08EE690E00E944803809163
:1001B00070008130C1F3DF91CF911F910F91FF90BB
:1001C000EF900895E0917F008E2F90E0FC01319731
:1001D000E830F10508F007C1E65DFF4F0C941B07FE
:1001E00040917B0050917C0060917D0070917E0079
:1001F00080E890E00E94B800F6C040917B005091EA
:100200007C0060917D0070917E0080E890E00E940B
:10021000B80040917B0050917C0060917D0070910E
:100220007E0087E790E00E94B800DDC040917B002F
:1002300050917C0060917D0070917E0080E890E09C
:100240000E94B80040917B0050917C0060917D003D
:1002500070917E0087E790E00E94B80040917B009B
:1002600050917C0060917D0070917E0084E790E069
:100270000E94B800B8C040917B0050917C00609112
:100280007D0070917E0080E890E00E94B80040916F
:100290007B0050917C0060917D0070917E0087E72B
:1002A00090E00E94B80040917B0050917C006091EA
:1002B0007D0070917E0084E790E00E94B80040913C
:1002C0007B0050917C0060917D0070917E0081E701
:1002D00090E00E94B80087C01092820080E890E011
:1002E0000E94B50240917B0050917C0060917D009E
:1002F00070917E0087E790E00E94B80040917B00FB
:1003000050917C0060917D0070917E0084E790E0C8
:100310000E94B80040917B0050917C0060917D006C
:1003200070917E0081E790E00E94B8005CC010925E
:10033000820080E890E00E94B5021092790087E781
:1003400090E00E94B50240917B0050917C0060914A
:100350007D0070917E0084E790E00E94B80040919B
:100360007B0050917C0060917D0070917E0081E760
:1003700090E00E94B80037C01092820080E890E0C0
:100380000E94B5021092790087E790E00E94B502C2
:100390001092760084E790E00E94B50240917B00C5
:1003A00050917C0060917D0070917E0081E790E02B
:1003B0000E94B80018C01092820080E890E00E946D
:1003C000B5021092790087E790E00E94B502109282
:1003D000760084E790E00E94B5021092730081E7F6
:1003E00090E00E94B502809160008330C9F128F44A
:1003F000813051F08230F1F00895843009F446C024
:10040000853009F457C0089584E690E090937E000B
:1004100080937D0084E893E090937C0080937B0040
:1004200004C08BE690E00E94480380916D0081300B
:10043000C1F3089588EC90E090937E0080937D0056
:1004400080E293E090937C0080937B0004C08BE675
:1004500090E00E94480380916D008130C1F30895BF
:100460008CE291E090937E0080937D008CEB92E093
:1004700090937C0080937B0004C08BE690E00E9408
:10048000480380916D008130C1F3089584EF91E0BD
:1004900090937E0080937D0090937C0080937B00FE
:1004A00004C08BE690E00E94480380916D0081308B
:1004B000C1F3089580E293E090937E0080937D00E5
:1004C00088EC90E090937C0080937B0004C08BE6E6
:1004D00090E00E94480380916D008130C1F308953F
:1004E000FC01908182818130E1F5913099F028F012
:1004F0009230E9F0933041F136C081E090E0018024
:1005000002C0880F991F0A94E2F79BB3892B8BBB1B
:1005100080E0089581E090E0018002C0880F991F7B
:100520000A94E2F798B3892B88BB80E0089581E0B4
:1005300090E0018002C0880F991F0A94E2F795B3FA
:10054000892B85BB80E0089581E090E0018002C0A6
:10055000880F991F0A94E2F792B3892B82BB80E03F
:10056000089582E0089581E00895FC0190818281E0
:10057000811140C09130A1F028F09230F9F0933011
:1005800059F13AC081E090E0018002C0880F991FC4
:100590000A94E2F780959BB389238BBB80E0089592
:1005A00081E090E0018002C0880F991F0A94E2F771
:1005B000809598B3892388BB80E0089581E090E01E
:1005C000018002C0880F991F0A94E2F7809595B3C5
:1005D000892385BB80E0089581E090E0018002C01E
:1005E000880F991F0A94E2F7809592B3892382BB02
:1005F00080E0089582E0089581E008950F931F93AD
:10060000CF93DF9300D000D0CDB7DEB78C01198235
:100610001A821B821C82FC018081898381818A83EA
:1006200081E08B83CE0101960E946704F8018281EC
:10063000813021F4C8010E94700205C0811103C0FD
:10064000C8010E94B50280E00F900F900F900F90AC
:10065000DF91CF911F910F910895CF93DF9300D039
:1006600000D0CDB7DEB719821A821B821C82FC0132
:100670002081298381818A83CE0101960E946704AB
:1006800080E00F900F900F900F90DF91CF91089521
:10069000FC0190819130F1F030F09230B1F1933063
:1006A00009F44EC068C089B390E0018002C09595FE
:1006B00087950A94E2F79C012170332780FF04C0DC
:1006C00081E0828380E00895232B09F056C01282D6
:1006D00080E0089586B3218190E0022E02C09595B6
:1006E00087950A94E2F780FF04C081E0828380E06E
:1006F000089589B390E002C0959587952A95E2F711
:1007000080FD3DC0128280E0089583B3218190E096
:10071000022E02C0959587950A94E2F780FF04C0E7
:1007200081E0828380E0089589B390E002C09595CE
:1007300087952A95E2F780FD24C0128280E0089513
:1007400080B3218190E0022E02C0959587950A948E
:10075000E2F780FF04C081E0828380E0089589B3DE
:1007600090E002C0959587952A95E2F780FD0BC031
:10077000128280E0089581E0089580E0089580E08D
:10078000089580E0089580E008950FB607FE05C043
:100790008BB780648BBF80E0089581E008950FB629
:1007A00007FE05C08BB780688BBF80E0089581E0AD
:1007B00008950FB607FE05C08BB780628BBF80E03F
:1007C000089581E00895813011F118F08230E9F147
:1007D0004AC0613059F028F0623071F0633091F016
:1007E00044C085B78C7F85BF80E0089585B7816060
:1007F0008D7F85BF80E0089585B78E7F826085BF3D
:1008000080E0089585B7836085BF80E008956130FA
:1008100059F028F0623071F0633091F028C085B74C
:10082000837F85BF80E0089585B78460877F85BF1B
:1008300080E0089585B78B7F886085BF80E008954C
:1008400085B78C6085BF80E00895623029F484B755
:100850008F7B84BF80E00895633059F484B780644F
:1008600084BF80E0089583E0089580E0089580E0EB
:10087000089582E00895FC0180816181789481303F
:1008800059F018F0823079F015C00E94E3030E94FD
:10089000C503813089F408950E94E3030E94CF03C9
:1008A000813061F408950E94E3030E94D9038130EE
:1008B00039F4089583E0089580E0089580E0089574
:1008C00080E008950E947F000E94E200FDCFFC01BD
:1008D0009081913049F138F0923009F446C093305C
:1008E00009F463C082C0828181110EC081E090E072
:1008F000018002C0880F991F0A94E2F780959AB38D
:1009000089238ABB80E00895813009F070C081E0BE
:1009100090E0018002C0880F991F0A94E2F79AB311
:10092000892B8ABB80E00895828181110EC081E00D
:1009300090E0018002C0880F991F0A94E2F7809529
:1009400097B3892387BB80E00895813009F051C0B7
:1009500081E090E0018002C0880F991F0A94E2F7BD
:1009600097B3892B87BB80E00895828181110EC0E7
:1009700081E090E0018002C0880F991F0A94E2F79D
:10098000809594B3892384BB80E00895813099F5E4
:1009900081E090E0018002C0880F991F0A94E2F77D
:1009A00094B3892B84BB80E00895828181110EC0AD
:1009B00081E090E0018002C0880F991F0A94E2F75D
:1009C000809591B3892381BB80E008958130A9F49B
:1009D00081E090E0018002C0880F991F0A94E2F73D
:1009E00091B3892B81BB80E0089581E0089580E078
:1009F000089580E0089580E0089580E00895FC0166
:100A00008281813051F028F0823061F0833079F0BA
:100A100011C083B7877B83BF0DC083B78064877F96
:100A200083BF08C083B78F7B886083BF03C083B751
:100A3000886483BF8081813051F028F0823061F07A
:100A4000833079F011C083B78F7C83BF0DC083B72B
:100A500080618F7D83BF08C083B78F7E806283BF34
:100A600003C083B7806383BF84818CBF838182BFCF
:100A70008581813051F028F0823061F0833079F047
:100A800011C089B78C7F89BF0DC089B781608D7F08
:100A900089BF08C089B78E7F826089BF03C089B7CC
:100AA000836089BF81818230A9F028F4882349F0CE
:100AB000813059F008958430C1F090F08530D1F044
:100AC000089583B7887F83BF089583B78160897F46
:100AD00083BF089583B78E7F82608B7F83BF089525
:100AE00083B783608B7F83BF089583B78C7F8460D7
:100AF00083BF089583B781608D7F846083BF08952D
:100B0000CF92DF92EF92FF926B017C010E948D06E3
:100B10002FE632E143E85FE30E94EC050E945E06A7
:100B20002FEFC216D104E104F10409F088F4C12CBE
:100B3000D12C7601D394D701C601861B9109A10956
:100B4000B10982BF88B780FFFDCF816088BF18C020
:100B500021E0C216D206E104F10490F0BB27A92FD0
:100B6000982F872FBC0190E006C088B780FFFDCF8B
:100B7000816088BF9F5F292F30E026173707A8F3D1
:100B8000FF90EF90DF90CF9008951F920F920FB6D5
:100B90000F9211242F933F934F935F936F937F9303
:100BA0008F939F93AF93BF93EF93FF93E091830055
:100BB000F09184000995FF91EF91BF91AF919F91C2
:100BC0008F917F916F915F914F913F912F910F90F6
:100BD0000FBE0F901F9018950E9400060C94E1061E
:100BE0000E94DA0658F00E94D30640F029F45F3FD5
:100BF00029F00C94CA0651110C9415070C94D006D8
:100C00000E94F20668F39923B1F3552391F3951BE3
:100C1000550BBB27AA2762177307840738F09F5F1D
:100C20005F4F220F331F441FAA1FA9F335D00E2E8A
:100C30003AF0E0E832D091505040E695001CCAF7F7
:100C40002BD0FE2F29D0660F771F881FBB1F2617BA
:100C500037074807AB07B0E809F0BB0B802DBF0191
:100C6000FF2793585F4F3AF09E3F510578F00C9460
:100C7000CA060C9415075F3FE4F3983ED4F38695BB
:100C800077956795B795F7959F5FC9F7880F911D81
:100C90009695879597F90895E1E0660F771F881F6D
:100CA000BB1F621773078407BA0720F0621B730B20
:100CB000840BBA0BEE1F88F7E09508950E94FA06A0
:100CC00088F09F5798F0B92F9927B751B0F0E1F00D
:100CD000660F771F881F991F1AF0BA95C9F714C0BD
:100CE000B13091F00E941407B1E008950C941407FC
:100CF000672F782F8827B85F39F0B93FCCF38695F6
:100D000077956795B395D9F73EF490958095709552
:100D100061957F4F8F4F9F4F0895E89409C097FBCF
:100D20003EF490958095709561957F4F8F4F9F4FC2
:100D30009923A9F0F92F96E9BB279395F695879506
:100D400077956795B795F111F8CFFAF4BB0F11F4C9
:100D500060FF1BC06F5F7F4F8F4F9F4F16C0882370
:100D600011F096E911C0772321F09EE8872F762FA6
:100D700005C0662371F096E8862F70E060E02AF0E7
:100D80009A95660F771F881FDAF7880F96958795D3
:100D900097F9089597F99F6780E870E060E00895FB
:100DA0009FEF80EC089500240A9416161706180683
:100DB0000906089500240A9412161306140605065F
:100DC0000895092E0394000C11F4882352F0BB0FF0
:100DD00040F4BF2B11F460FF04C06F5F7F4F8F4F53
:100DE0009F4F089557FD9058440F551F59F05F3F8E
:100DF00071F04795880F97FB991F61F09F3F79F03D
:100E000087950895121613061406551FF2CF4695BE
:100E1000F1DF08C0161617061806991FF1CF869540
:100E20007105610508940895E894BB276627772724
:100E3000CB0197F90895EE0FFF1F0590F491E02D77
:060E40000994F894FFCFB5
:100E46000100050000000001030003030300030284
:0A0E5600000003000002000001008C
:00000001FF
