:100000000C942A000C9447000C9447000C94470071
:100010000C9447000C9447000C9447000C94470044
:100020000C9447000C9447000C9447000C94470034
:100030000C9447000C9447000C9447000C94470024
:100040000C9447000C9447000C9447000C94470014
:100050000C94470011241FBECFE5D8E0DEBFCDBF12
:1000600010E0A0E6B0E0ECE1F6E002C005900D92F1
:10007000AC36B107D9F720E0ACE6B0E001C01D9284
:10008000A037B207E1F70E946F020C940C030C94A6
:1000900000008DE690E00E94A80189E690E00E94B1
:1000A000A80186E690E00E94A80183E690E00E9405
:1000B000A80180E690E00E94D701089580E690E0D4
:1000C0000E94F20180916200813009F0AEC08091FF
:1000D0006C00843008F051C08130B9F028F08230D3
:1000E00029F18330A1F143C081E080936F008DE658
:1000F00090E00E941A0104C080E690E00E94F201A4
:10010000809162008130C1F332C081E080936B0046
:1001100089E690E00E941A0104C080E690E00E9407
:10012000F201809162008130C1F321C081E08093AF
:10013000680086E690E00E941A0104C080E690E024
:100140000E94F201809162008130C1F310C081E011
:100150008093650083E690E00E941A0104C080E667
:1001600090E00E94F201809162008130C1F38091A1
:100170006C008F5F80936C0008958450843008F089
:100180004DC08130B1F028F0823019F1833089F10F
:100190003FC010926F008DE690E00E945F0104C0A6
:1001A00080E690E00E94F201809162008130C1F30C
:1001B0002FC010926B0089E690E00E945F0104C09E
:1001C00080E690E00E94F201809162008130C1F3EC
:1001D0001FC01092680086E690E00E945F0104C094
:1001E00080E690E00E94F201809162008130C1F3CC
:1001F0000FC01092650083E690E00E945F0104C08A
:1002000080E690E00E94F201809162008130C1F3AB
:1002100080916C008F5F80936C00089510926C0049
:10022000089580E690E00E94F201809162008823A8
:10023000C1F30895FC01908182818130E1F5913014
:1002400099F028F09230E9F0933041F136C081E026
:1002500090E0018002C0880F991F0A94E2F79BB3D7
:10026000892B8BBB80E0089581E090E0018002C083
:10027000880F991F0A94E2F798B3892B88BB80E016
:10028000089581E090E0018002C0880F991F0A94D0
:10029000E2F795B3892B85BB80E0089581E090E07B
:1002A000018002C0880F991F0A94E2F792B3892B4C
:1002B00082BB80E0089582E0089581E00895FC010A
:1002C00090818281811140C09130A1F028F092305C
:1002D000F9F0933059F13AC081E090E0018002C01A
:1002E000880F991F0A94E2F780959BB389238BBBF3
:1002F00080E0089581E090E0018002C0880F991F9E
:100300000A94E2F7809598B3892388BB80E008952A
:1003100081E090E0018002C0880F991F0A94E2F703
:10032000809595B3892385BB80E0089581E090E0B6
:10033000018002C0880F991F0A94E2F7809592B35A
:10034000892382BB80E0089582E0089581E00895CA
:100350000F931F93CF93DF9300D000D0CDB7DEB7BC
:100360008C0119821A821B821C82FC018081898384
:1003700081818A8381E08B83CE0101960E94740281
:10038000F8018281813021F4C8010E941A0105C060
:10039000811103C0C8010E945F0180E00F900F909F
:1003A0000F900F90DF91CF911F910F910895CF93F0
:1003B000DF9300D000D0CDB7DEB719821A821B823E
:1003C0001C82FC012081298381818A83CE010196D0
:1003D0000E94740280E00F900F900F900F90DF91B9
:1003E000CF910895FC0190819130F1F030F092307E
:1003F000B1F1933009F44EC068C089B390E0018038
:1004000002C0959587950A94E2F79C0121703327E5
:1004100080FF04C081E0828380E00895232B09F0EF
:1004200056C0128280E0089586B3218190E0022EAA
:1004300002C0959587950A94E2F780FF04C081E099
:10044000828380E0089589B390E002C095958795F6
:100450002A95E2F780FD3DC0128280E0089583B3C3
:10046000218190E0022E02C0959587950A94E2F7CB
:1004700080FF04C081E0828380E0089589B390E02A
:1004800002C0959587952A95E2F780FD24C01282D7
:1004900080E0089580B3218190E0022E02C09595FE
:1004A00087950A94E2F780FF04C081E0828380E0B0
:1004B000089589B390E002C0959587952A95E2F753
:1004C00080FD0BC0128280E0089581E0089580E0F5
:1004D000089580E0089580E0089580E008950E94E6
:1004E00049000E945E00FDCFFC019081913049F1EE
:1004F00038F0923009F446C0933009F463C082C0EA
:10050000828181110EC081E090E0018002C0880FDD
:10051000991F0A94E2F780959AB389238ABB80E0F9
:100520000895813009F070C081E090E0018002C040
:10053000880F991F0A94E2F79AB3892B8ABB80E04F
:100540000895828181110EC081E090E0018002C097
:10055000880F991F0A94E2F7809597B3892387BB88
:1005600080E00895813009F051C081E090E0018081
:1005700002C0880F991F0A94E2F797B3892B87BBB3
:1005800080E00895828181110EC081E090E00180B9
:1005900002C0880F991F0A94E2F7809594B38923CB
:1005A00084BB80E00895813099F581E090E001807E
:1005B00002C0880F991F0A94E2F794B3892B84BB79
:1005C00080E00895828181110EC081E090E0018079
:1005D00002C0880F991F0A94E2F7809591B389238E
:1005E00081BB80E008958130A9F481E090E0018032
:1005F00002C0880F991F0A94E2F791B3892B81BB3F
:1006000080E0089581E0089580E0089580E00895F5
:0C06100080E0089580E00895F894FFCF8A
:0C061C00000401000300000200000100C7
:00000001FF
