:100000000C942A000C9447000C9447000C94470071
:100010000C9447000C9447000C9447000C94470044
:100020000C9447000C9447000C9447000C94100863
:100030000C9447000C9447000C9447000C94470024
:100040000C9447000C9447000C9447000C94470014
:100050000C94470011241FBECFE5D8E0DEBFCDBF12
:1000600010E0A0E6B0E0E4EAF5E102C005900D92F0
:10007000A23DB107D9F720E0A2EDB0E001C01D928A
:10008000AC3DB207E1F70E94B2030C94D00A0C9485
:1000900000000E94680341E750E060E080E00E94B9
:1000A0003F0364E081E00E94280389E190E00E9420
:1000B0004A0389E18093D9008093DB0060E070E01F
:1000C0008AE794E40E9496060895FF920F931F9387
:1000D000CF93DF93CDB7DEB760970FB6F894DEBF4E
:1000E0000FBECDBF8091DB000F2EFEEEFF2EF02D58
:1000F000F80E80E1E0E6F0E0DE01119601900D924D
:100100008A95E1F70E94680342E850E060E080E0F1
:100110000E943F0364E080E00E94280382E190E0B7
:100120000E944A0367E080E00E9428038091DB0080
:1001300090E00E944A0347E850E06AE080E00E94B5
:100140003F036EE080E00E94280383E290E00E947B
:100150004A0360E081E00E94280300E010E00BC049
:10016000E1E0F0E0EC0FFD1FE00FF11F80810E9445
:10017000A2020F5F1F4F8F2D90E00817190784F31D
:100180000E94BE01823061F0833091F08130A9F489
:100190008091DB008F5F8093DB000E9465000FC0C1
:1001A0008091DB0081508093DB000E94650007C0D6
:1001B0008091DB008093D90002C00E9465006096A8
:1001C0000FB6F894DEBF0FBECDBFDF91CF911F9168
:1001D0000F91FF90089589E18093D9008093DB000F
:1001E0000E94720263E081E00E94B70360E083E056
:1001F0000E946C030E9468034CE850E064E080E0D9
:100200000E943F0360E070E08AE794E40E94960653
:1002100044E950E060E081E00E943F036EE081E04D
:100220000E94280389E190E00E944A0360E070E0A8
:100230008AE794E40E94960680E00E9490038093EF
:10024000DA000E94680342EA50E060E080E00E9429
:100250003F0365E081E00E9428038091DA0090E08E
:100260000E944A0360E070E08AE794E40E949606E8
:100270009091DA008091D900891718F01092D80077
:1002800003C081E08093D8008091D800811106C01E
:1002900040E060E083E00E948403089541E060E074
:1002A00083E00E948403089580E00E94900380937D
:1002B000DA009091D200891709F452C08093D200DD
:1002C0009091D900981718F01092D80003C081E0DF
:1002D0008093D8000E9468034FEA50E060E080E01D
:1002E0000E943F0362E080E00E9428038091DA00D0
:1002F00090E00E944A0342EB50E066E080E00E94FA
:100300003F0368E080E00E9428038091D90090E0DC
:100310000E944A038091D800811106C040E060E04D
:1003200083E00E94840305C041E060E083E00E9416
:1003300084038091D800882339F045EB50E06CE0CD
:1003400080E00E943F0306C04AEB50E06BE080E093
:100350000E943F0340EC50E060E081E00E943F03D8
:100360000E94BE01843019F0853021F008950E946A
:10037000650008950E944900089508950F931F9302
:10038000CF93DF931F92CDB7DEB700E02FC060E0C0
:1003900081E00E94460541E0602F81E00E94EC036D
:1003A00061E070E0002E02C0660F771F0A94E2F74A
:1003B000609581E00E94600510E015C0AE014F5FBE
:1003C0005F4F63E0610F81E00E94EE04898181113B
:1003D00009C0812F880F180F812F800F8F5F0E9417
:1003E000BD0107C01F5F133048F30F5F033078F281
:1003F00080E00F90DF91CF911F910F9108951F938F
:10040000CF93DF931F92CDB7DEB7182F198240E04C
:1004100064E082E00E946D0440E065E082E00E94BA
:100420006D0489EF90E00197F1F700C0000041E012
:1004300066E082E00E946D0489EF90E00197F1F799
:1004400000C00000BE016F5F7F4F82E00E947A050E
:10045000812F82958F706981607F682B698382E02C
:100460000E94600589EF90E00197F1F700C000005D
:1004700040E066E082E00E946D0489EF90E0019721
:10048000F1F700C0000041E066E082E00E946D04E8
:1004900089EF90E00197F1F700C00000BE016F5FA7
:1004A0007F4F82E00E947A056981607F1F70612B17
:1004B000698382E00E94600589EF90E00197F1F77F
:1004C00000C0000040E066E082E00E946D0489EF19
:1004D00090E00197F1F700C000000F90DF91CF91FD
:1004E0001F91089541E064E082E00E94EC0341E046
:1004F00065E082E00E94EC0341E066E082E00E9459
:10050000EC0341E060E082E00E94EC0341E061E046
:1005100082E00E94EC0341E062E082E00E94EC0392
:1005200041E063E082E00E94EC0382E00E94FF0170
:1005300088E20E94FF018CE00E94FF0181E00E949E
:10054000FF0108951F93CF93DF931F92CDB7DEB7BE
:10055000182F198241E064E082E00E946D0440E0BF
:1005600065E082E00E946D0489EF90E00197F1F769
:1005700000C0000041E066E082E00E946D0489EF67
:1005800090E00197F1F700C00000BE016F5F7F4F60
:1005900082E00E947A05812F82958F706981607F49
:1005A000682B698382E00E94600589EF90E00197E3
:1005B000F1F700C0000040E066E082E00E946D04B8
:1005C00089EF90E00197F1F700C0000041E066E09C
:1005D00082E00E946D0489EF90E00197F1F700C07E
:1005E0000000BE016F5F7F4F82E00E947A05698143
:1005F000607F1F70612B698382E00E94600589EF34
:1006000090E00197F1F700C0000040E066E082E072
:100610000E946D0489EF90E00197F1F700C000009F
:100620000F90DF91CF911F9108950F931F93CF9358
:100630008C01C0E003C00E94A202CF5FF801EC0F62
:10064000F11D80818111F7CFCF911F910F910895F6
:10065000813031F070F0823031F0833039F00AC0EF
:1006600090E4960F07C090E1960F04C090E5960FB6
:1006700001C0962F892F80680E94FF010895CF93B3
:10068000DF93EA010E942803CE010E941503DF9147
:10069000CF910895CF93DF93CDB7DEB760970FB6B4
:1006A000F894DEBF0FBECDBF4AE050E0BE016F5FE1
:1006B0007F4F0E94900ACE0101960E94150360961A
:1006C0000FB6F894DEBF0FBECDBFDF91CF91089576
:1006D00081E00E94FF010895CF93DF93843070F48E
:1006E000683070F4D62FC82F41E00E94EC0340E040
:1006F0006D2F8C2F0E946D0481E003C080E001C04B
:1007000080E0DF91CF910895843030F4683030F488
:100710000E946D0481E0089580E0089580E00895CE
:10072000CF93DF9300D0CDB7DEB71A821982BE0116
:100730006F5F7F4F0E94D40329813A81AEEEB2E011
:100740000E94810A0E94620920E030ED4FEB54E4E0
:100750000E94C1080E943309862F0F900F90DF91ED
:10076000CF9108950E94EB000E945401FDCF843088
:10077000B8F49FEF960F9730A8F427B130E4839F29
:10078000C0011124922F9F73892B87B986B1817F75
:100790006770682B66B986B1806886B983E0089572
:1007A00080E0089582E008958930A0F497B1907EAA
:1007B0008F71892B87B986B1806486B9349BFECF4F
:1007C00086B1806186B984B195B1FB019183808344
:1007D00083E0089581E00895683008F078C084309F
:1007E00008F077C0813011F130F08230D1F18330E0
:1007F00009F452C070C0413061F42AB381E090E046
:1008000002C0880F991F6A95E2F7822B8ABB81E0AC
:1008100008952AB381E090E002C0880F991F6A957D
:10082000E2F7809582238ABB81E00895413061F42C
:1008300027B381E090E002C0880F991F6A95E2F724
:10084000822B87BB81E0089527B381E090E002C04E
:10085000880F991F6A95E2F78095822387BB81E014
:100860000895413061F424B381E090E002C0880F24
:10087000991F6A95E2F7822B84BB81E0089524B327
:1008800081E090E002C0880F991F6A95E2F7809599
:10089000822384BB81E00895413061F421B381E07B
:1008A00090E002C0880F991F6A95E2F7822B81BB06
:1008B00081E0089521B381E090E002C0880F991F84
:1008C0006A95E2F78095822381BB81E0089580E0FC
:1008D000089580E0089581E00895683008F078C0B8
:1008E000843008F077C0813011F130F08230D1F1DE
:1008F000833009F452C070C0413061F42BB381E001
:1009000090E002C0880F991F6A95E2F7822B8BBB9B
:1009100081E008952BB381E090E002C0880F991F19
:100920006A95E2F7809582238BBB81E00895413080
:1009300061F428B381E090E002C0880F991F6A95A6
:10094000E2F7822B88BB81E0089528B381E090E034
:1009500002C0880F991F6A95E2F78095822388BBB1
:1009600081E00895413061F425B381E090E002C058
:10097000880F991F6A95E2F7822B85BB81E0089565
:1009800025B381E090E002C0880F991F6A95E2F7D5
:100990008095822385BB81E00895413061F422B3C4
:1009A00081E090E002C0880F991F6A95E2F7822BE0
:1009B00082BB81E0089522B381E090E002C0880FFD
:1009C000991F6A95E2F78095822382BB81E00895A2
:1009D00080E0089580E0089581E00895683008F08F
:1009E0004FC0843008F04EC08130B9F028F082301A
:1009F00029F18330A1F148C089B390E002C09595F8
:100A000087956A95E2F780FF04C081E0FA01808350
:100A10000895FA01108281E0089586B390E002C043
:100A2000959587956A95E2F780FF04C081E0FA0109
:100A300080830895FA01108281E0089583B390E0E5
:100A400002C0959587956A95E2F780FF04C081E022
:100A5000FA0180830895FA01108281E0089580B33D
:100A600090E002C0959587956A95E2F780FF04C0F3
:100A700081E0FA0180830895FA01108281E00895EF
:100A800080E0089580E0089581E008958430A0F426
:100A9000813049F028F0823049F0833051F00EC0A7
:100AA0006ABB81E0089567BB81E0089564BB81E083
:100AB000089561BB81E0089580E0089581E0089584
:100AC0008430A0F4813049F028F0823049F083303E
:100AD00051F00EC06BBB81E0089568BB81E00895C2
:100AE00065BB81E0089562BB81E0089580E00895D0
:100AF00081E008958430E0F4813059F028F08230AC
:100B000069F0833081F016C089B3FB01808381E0F6
:100B1000089586B3FB01808381E0089583B3FB01D0
:100B2000808381E0089580B3FB01808381E0089594
:100B300080E0089581E00895CF92DF92EF92FF92D6
:100B4000CF93DF936B017C01EA012CEE31E143E8A6
:100B500053E40E94BC0818160CF453C028EB3EE185
:100B600045E85EE3C701B6010E94BC0818162CF0E8
:100B700081E090E09983888345C023E333E343E039
:100B800050E4C701B6010E94BC08181634F088E092
:100B900090E09983888381E035C02DE33AE043E813
:100BA00051E4C701B6010E94BC08181634F080E475
:100BB00090E09983888381E025C02BE734E143E806
:100BC00052E4C701B6010E94BC08181634F080E058
:100BD00091E09983888381E015C02CEE31E143E8F0
:100BE00053E4C701B6010E94BC08181634F080E037
:100BF00094E09983888381E005C01982188281E09E
:100C000001C080E0DF91CF91FF90EF90DF90CF9017
:100C10000895CF93DF93EB018034910581F130F497
:100C20008130910561F00897D1F059C0811561E0DC
:100C30009607A9F18115944009F441C050C068EBB2
:100C40007EE185E89EE30E944F082FE632E143E80B
:100C50005AE30E94C1080E943309688341C063E3DC
:100C600073E383E090E40E944F082FE632E143E013
:100C70005CE30E94C1080E943309688331C06DE3C0
:100C80007AE083E891E40E944F082FE632E143E8DE
:100C90005DE30E94C1080E943309688321C06BE7AD
:100CA00074E183E892E40E944F082FE632E143E8C2
:100CB0005EE30E94C1080E943309688311C06CEE94
:100CC00071E183E893E40E944F082FE632E143E8A4
:100CD0005FE30E94C1080E943309688301C0188243
:100CE000DF91CF91089580349105A9F030F48130DF
:100CF000910559F0089761F017C0811521E092071E
:100D000069F08115944069F00FC081E883BF0895B0
:100D100082E883BF089583E883BF089584E883BF92
:100D2000089585E883BF089513BE08958F929F921A
:100D3000AF92BF92CF92DF92EF92FF921F93CF9329
:100D4000DF93CDB7DEB727970FB6F894DEBF0FBE9F
:100D5000CDBF6B017C01AE014F5F5F4F0E949C05D0
:100D6000882371F0A7019601BE016D5F7F4F8981D5
:100D70009A810E9409061C821D821E821F8211C058
:100D800080E094E09A8389832CEE31E143E853E4D8
:100D9000C701B6010E94C1086C837D838E839F8347
:100DA0001B82CC80DD80EE80FF80C701B6010E94EF
:100DB0003309162F70E080E090E00E9464099B01E7
:100DC000AC01C701B6010E944F082CEE31E143E8A7
:100DD00053E40E94140A0E943309F62E8B8182BFCD
:100DE000111108C089819A810E94730608B600FE1D
:100DF000FDCF00C185E883BF07C008B600FEFDCF68
:100E0000115088B7816088BF1111F7CFFF2009F416
:100E100053C06F2D70E080E090E00E9464094B01A8
:100E20005C0128EB3EE145E85EE30E94BC08181631
:100E30002CF081E090E09A8389833EC023E333E382
:100E400043E050E4C501B4010E94BC0818162CF020
:100E500088E090E09A8389832FC02DE33AE043E84D
:100E600051E4C501B4010E94BC0818162CF080E4BE
:100E700090E09A83898320C02BE734E143E852E471
:100E8000C501B4010E94BC0818162CF080E091E066
:100E90009A83898311C02CEE31E143E853E4C50104
:100EA000B4010E94BC0818162CF080E094E09A83EC
:100EB000898302C01A82198289819A8180349105BE
:100EC00009F445C030F48130910569F0089729F1A3
:100ED0008CC0811521E0920709F453C0811594401C
:100EE00009F469C082C06F2D70E080E090E00E943C
:100EF00064099B01AC0168EB7EE185E89EE30E94FA
:100F00004F082FE632E143E85AE30E94C1080E94ED
:100F1000330962BF81E883BF6AC06F2D70E080E053
:100F200090E00E9464099B01AC0163E373E383E0FA
:100F300090E40E944F082FE632E143E05CE30E9418
:100F4000C1080E94330962BF82E883BF50C06F2D81
:100F500070E080E090E00E9464099B01AC016DE3C9
:100F60007AE083E891E40E944F082FE632E143E8FB
:100F70005DE30E94C1080E94330962BF83E883BF1A
:100F800036C06F2D70E080E090E00E9464099B0104
:100F9000AC016BE774E183E892E40E944F082FE60E
:100FA00032E143E85EE30E94C1080E94330962BF58
:100FB00084E883BF1CC06F2D70E080E090E00E9449
:100FC00064099B01AC016CEE71E183E893E40E943B
:100FD0004F082FE632E143E85FE30E94C1080E9418
:100FE000330962BF85E883BF02C012BE13BE08B6D4
:100FF00000FEFDCF88B7816088BF13BE27960FB66D
:10100000F894DEBF0FBECDBFDF91CF911F91FF904F
:10101000EF90DF90CF90BF90AF909F908F9008950A
:101020001F920F920FB60F9211242F933F934F935D
:101030005F936F937F938F939F93AF93BF93EF9340
:10104000FF93E091D600F091D7003097B9F08091EE
:10105000D500882379F08091D4008F5F8093D400ED
:101060009091D4008091D500981308C009951092F2
:10107000D40004C009958091D30082BFFF91EF9105
:10108000BF91AF919F918F917F916F915F914F91A0
:101090003F912F910F900FBE0F901F9018955058B1
:1010A000BB27AA270E9467080C94DA090E94CC0982
:1010B00038F00E94D30920F039F49F3F19F426F448
:1010C0000C94C9090EF4E095E7FB0C94C309E92FD1
:1010D0000E94EB0958F3BA17620773078407950754
:1010E00020F079F4A6F50C940D0A0EF4E0950B2E81
:1010F000BA2FA02D0B01B90190010C01CA01A0016A
:101100001124FF27591B99F0593F50F4503E68F1C4
:101110001A16F040A22F232F342F4427585FF3CF05
:10112000469537952795A795F0405395C9F77EF4D6
:101130001F16BA0B620B730B840BBAF09150A1F01F
:10114000FF0FBB1F661F771F881FC2F70EC0BA0FA5
:10115000621F731F841F48F4879577956795B7952D
:10116000F7959E3F08F0B0CF9395880F08F0992728
:10117000EE0F9795879508950E949F0908F481E0E6
:1011800008950E94D5080C94DA090E94D30958F0FA
:101190000E94CC0940F029F45F3F29F00C94C30968
:1011A00051110C940E0A0C94C9090E94EB0968F3C2
:1011B0009923B1F3552391F3951B550BBB27AA2710
:1011C00062177307840738F09F5F5F4F220F331F4A
:1011D000441FAA1FA9F335D00E2E3AF0E0E832D012
:1011E00091505040E695001CCAF72BD0FE2F29D015
:1011F000660F771F881FBB1F261737074807AB07E7
:10120000B0E809F0BB0B802DBF01FF2793585F4F5B
:101210003AF09E3F510578F00C94C3090C940E0AE5
:101220005F3FE4F3983ED4F3869577956795B7953D
:10123000F7959F5FC9F7880F911D9695879597F948
:101240000895E1E0660F771F881FBB1F62177307C1
:101250008407BA0720F0621B730B840BBA0BEE1FD6
:1012600088F7E09508950E94F30988F09F5798F059
:10127000B92F9927B751B0F0E1F0660F771F881F9B
:10128000991F1AF0BA95C9F714C0B13091F00E94B5
:101290000D0AB1E008950C940D0A672F782F882766
:1012A000B85F39F0B93FCCF3869577956795B395DC
:1012B000D9F73EF490958095709561957F4F8F4F4B
:1012C0009F4F0895E89409C097FB3EF49095809550
:1012D000709561957F4F8F4F9F4F9923A9F0F92FFC
:1012E00096E9BB279395F695879577956795B7957A
:1012F000F111F8CFFAF4BB0F11F460FF1BC06F5F60
:101300007F4F8F4F9F4F16C0882311F096E911C071
:10131000772321F09EE8872F762F05C0662371F092
:1013200096E8862F70E060E02AF09A95660F771FA6
:10133000881FDAF7880F9695879597F90895990F82
:101340000008550FAA0BE0E8FEEF16161706E8078F
:10135000F907C0F012161306E407F50798F0621BB0
:10136000730B840B950B39F40A2661F0232B242B85
:10137000252B21F408950A2609F4A140A6958FEFA4
:10138000811D811D089597F99F6780E870E060E0F6
:1013900008959FEF80EC089500240A94161617060E
:1013A00018060906089500240A9412161306140656
:1013B00005060895092E0394000C11F4882352F0B9
:1013C000BB0F40F4BF2B11F460FF04C06F5F7F4F71
:1013D0008F4F9F4F089557FD9058440F551F59F058
:1013E0005F3F71F04795880F97FB991F61F09F3F12
:1013F00079F087950895121613061406551FF2CF3B
:101400004695F1DF08C0161617061806991FF1CF8A
:1014100086957105610508940895E894BB276627B1
:101420007727CB0197F908950E94270A0C94DA09CF
:101430000E94CC0938F00E94D30920F0952311F0C6
:101440000C94C3090C94C90911240C940E0A0E942F
:10145000EB0970F3959FC1F3950F50E0551F629F04
:10146000F001729FBB27F00DB11D639FAA27F00DFD
:10147000B11DAA1F649F6627B00DA11D661F829F24
:101480002227B00DA11D621F739FB00DA11D621F09
:10149000839FA00D611D221F749F3327A00D611D26
:1014A000231F849F600D211D822F762F6A2F112408
:1014B0009F5750409AF0F1F088234AF0EE0FFF1F3B
:1014C000BB1F661F771F881F91505040A9F79E3F92
:1014D000510580F00C94C3090C940E0A5F3FE4F3AD
:1014E000983ED4F3869577956795B795F795E795E8
:1014F0009F5FC1F7FE2B880F911D9695879597F9F1
:101500000895A29FB001B39FC001A39F700D811DDC
:101510001124911DB29F700D811D1124911D0895FC
:101520004532510520F4423010F00C949B0AFB0127
:101530001082CB010895BB274A3031F4992322F45D
:10154000BDE2909581959F4F0C94A70ABB27FB01A4
:101550005527AA27880F991FAA1FA41710F0A41BAC
:1015600083955051B9F7A05DAA3308F0A95DA19306
:10157000009779F7B111B1931192CB010C94C00A85
:10158000DC01FC01672F71917723E1F7329704C0EA
:101590007C916D9370836291AE17BF07C8F3089575
:0415A000F894FFCFED
:1015A4003E3E3E3E3E3E3E3E3E3E3E3E3E3E3E3E57
:1015B4000054454D50204953205245534554454409
:1015C40020004D494E3D004D41583D0077656C6308
:1015D4006F6D650064656661756C742074656D700B
:1015E4003D0043757272656E742054656D700043DE
:1015F4003D00533D00533D4F4E00533D4F46460082
:10160400342D53455420202020352D524553455424
:021614000000D4
:00000001FF
